:020000040800F2
:10000000E00600208901000865100008010F0008C3
:10001000611000089102000855140008000000005B
:100020000000000000000000000000001D1100089A
:100030009502000800000000ED10000851110008B2
:10004000A3010008A3010008A3010008A301000800
:10005000A3010008A3010008A3010008A3010008F0
:10006000A3010008A3010008A3010008A3010008E0
:10007000A3010008A3010008A3010008A3010008D0
:10008000A3010008A3010008A3010008A3010008C0
:10009000A3010008A3010008A3010008A3010008B0
:1000A000A3010008A3010008A3010008A3010008A0
:1000B000A3010008A3010008A3010008A301000890
:1000C000A3010008A3010008A3010008A301000880
:1000D000A3010008A3010008A3010008A301000870
:1000E000A3010008A3010008A301000800F002F822
:1000F00000F03AF80AA090E8000C82448344AAF188
:100100000107DA4501D100F02FF8AFF2090EBAE885
:100110000F0013F0010F18BFFB1A43F0010318473B
:10012000BC170000DC170000103A24BF78C878C163
:10013000FAD8520724BF30C830C144BF04680C60ED
:10014000704700000023002400250026103A28BF35
:1001500078C1FBD8520728BF30C148BF0B60704739
:100160001FB51FBD10B510BD00F058F81146FFF7C0
:10017000F7FF01F047FA00F076F803B4FFF7F2FF5B
:1001800003BC00F07DF8000009488047094800479B
:10019000FEE7FEE7FEE7FEE7FEE7FEE7FEE7FEE737
:1001A000FEE7FEE704480549054A064B7047000094
:1001B000B5110008ED000008E0000020E006002076
:1001C000E0020020E00200204FF0000200B51346DC
:1001D00094469646203922BFA0E80C50A0E80C5067
:1001E000B1F12001BFF4F7AF090728BFA0E80C5018
:1001F00048BF0CC05DF804EB890028BF40F8042B11
:1002000008BF704748BF20F8022B11F0804F18BF7D
:1002100000F8012B7047704770477047754600F033
:100220002BF8AE4605006946534620F00700854688
:1002300018B020B5FFF7B6FFBDE820404FF000062C
:100240004FF000074FF000084FF0000BAC46ACE851
:10025000C009ACE8C009ACE8C009ACE8C00921F0AD
:1002600007018D46704710B50446AFF30080204665
:10027000BDE81040FFF781BF004870471000002024
:1002800001491820ABBEFEE72600020070470000BF
:10029000FEE7000070470000EFF3108072B600BF69
:1002A000FEE700002DE9F04F84B00E680290002EAA
:1002B00000F0038140F20C4E40F2004741F2004250
:1002C0000298C4F2010EC4F20107C4F20102042331
:1002D000002401254FF0000A4FF00009904208BFAA
:1002E000032300930AE000BF01250E680AF1010A0A
:1002F00036FA0AF204F1040400F0DF8005FA0AFB82
:1003000016EA0B08F1D04A684FF6FF73C1F21003EA
:100310009A4211DC122A54D80298DFE802F0350A1A
:100320004347535353535353535353535353534AC2
:100330004E00D1F80C9045E04FF6FF73C1F2210357
:100340009A4210DC0023C1F2110302989A421BD09A
:100350000023C1F212039A4216D00023C1F22103F6
:100360009A4211D02EE00023C1F2220302989A4251
:100370000AD00023C1F231039A4205D00023C1F212
:1003800032039A421ED100BF8A6842B1012A14BFCB
:10039000C0F814B0C0F810B04FF0080912E04FF0E8
:1003A00004090FE0CA6802F108090BE04FF00009E8
:1003B00008E0CA6802F1040904E0CA6802F10C0905
:1003C00000E0029822460346B8F5807F24BF203A19
:1003D00004331D684FF00F0C0CFA02F6B54309FA0E
:1003E00002F22A431A60CA79D2067FF57DAF41F244
:1003F0001803CDF80490C4F202031A68F34642F0E1
:1004000001021A601A684FEA9A0E02F00102039282
:10041000039AA7F57E72B94652F82E3004F00C0705
:1004200040F600060CFA07F5C4F20106B04223EAD2
:10043000050C10D040F60043C4F2010398420CD0E2
:1004400041F20003C4F201039842009B4FF0010502
:1004500008BF022303E0002300E001230125BB4085
:1004600043EA0C0342F82E304E684F46F202D9F8A8
:10047000082054BF22EA080242EA0802DE46DDF8FC
:100480000490BA60DEF80020B30254BF22EA0802EA
:1004900042EA0802CEF800207A68B30354BF22EA89
:1004A000080242EA08027A603A68F30354BF22EA7B
:1004B000080242EA08023A6017E704B0BDE8F08F8C
:1004C0008068084018BF01207047000040F2DC003F
:1004D000C2F200000068704740F2040040F2DC0104
:1004E000C2F20000C2F2000100780A6810440860FD
:1004F0007047000080B542F20000C4F202000168BB
:1005000041F010010160032000F062F80F2000F0BC
:1005100005F800F02BF8002080BD0000B0B540F2D7
:100520000402C2F2000240F200011278C2F200019D
:100530004FF47A730968B3FBF2F20446B1FBF2F1AF
:10054000084600F0BBFA0F2C4FF001050CD858B943
:100550004FF0FF3021460022002500F029F840F23C
:100560000800C2F2000004602846B0BD82B041F22B
:100570001800C4F202000168022241F0010101608A
:10058000016801F0010101910199416841F0805138
:100590004160406800F08050009000980420C4F250
:1005A0000100016862F31A61016002B07047000047
:1005B00070B514460D46064600F04EFF2946224609
:1005C00000F052FD0146304600F04EFF70BD0000C5
:1005D00080B500F05BFF80BD2DE9F04381B00028BD
:1005E00000F0878042F20008C4F202080446D8F8FE
:1005F00000000D4600F0070088420CD2D8F8000039
:1006000020F007002843C8F80000D8F8000000F0E8
:100610000700A8426DD1206841F204098107C4F2A5
:10062000020917D5410705D5D9F8001041F4E0615A
:10063000C9F80010010705D5D9F8001041F4605140
:10064000C9F80010D9F80010A26821F0F001114398
:10065000C9F80010C00745D1D8F8000000F0070025
:10066000A8420CD9D8F8000020F007002843C8F8A9
:100670000000D8F8000000F00700A84239D1206837
:10068000410707D5D9F80010E26821F4E061114371
:10069000C9F80010000708D5D9F80000216920F436
:1006A000605040EAC100C9F8000000F04DF8D9F8E8
:1006B000001041F6CC02C1F30311C0F60002515CF8
:1006C00040F2000220FA01F140F20800C2F20000FC
:1006D0000068C2F200021160FFF720FF002001B0A5
:1006E000BDE8F0836068012807D159F8041C89032C
:1006F0000CD4012001B0BDE8F08359F8041C022895
:1007000002D18901F5D501E08907F2D5D9F80010A9
:1007100021F003010843C9F80000FFF7D7FE0646A1
:1007200041F28837D9F80000616800F00C00B0EBA6
:10073000810F91D0FFF7CAFE801BB842F2D9032087
:1007400001B0BDE8F083000041F2040CC4F2020CD9
:10075000DCF8003003F00C00082841F20020C0F261
:100760007A0018BF7047C3F383420AA18A5CD90399
:1007700005D440F60010C0F23D0050437047DCF84D
:10078000001008A3C1F34041595C5043B0FBF1F0A5
:10079000704700BF02030405060708090A0B0C0D89
:1007A0000E0F1010010200002DE9F04182B0002868
:1007B00000F0C4800446007841F20006C007C4F28D
:1007C000020643D0706800F00C00042817D070684F
:1007D00000F00C00082802D17068C0030FD46568CF
:1007E0009DB1B5F5803F06D03068B5F5A02F0DD18D
:1007F00040F480203060306840F480300CE0306895
:10080000800323D5606808BB98E0306820F480300E
:100810003060306820F480203060FFF757FE002DF4
:10082000054610D03068800310D4FFF74FFE401B00
:100830006428F7D908E100BFFFF748FE401B642891
:100840004FF0030077D830688003F5D42078800714
:1008500018D5706810F00C0F07D0706800F00C000D
:10086000082826D17068C00323D43068800702D5D9
:100870002069012862D13068616920F0F80040EAFF
:10088000C1003060207800073DD5A06938B3002052
:10089000C4F242200121C0F88014FFF717FE05467C
:1008A000706A80072DD4FFF711FE401B0228F7D98C
:1008B000CAE02069002840F20000C4F2422000F0A3
:1008C0009A8001210160FFF701FE0546306880072C
:1008D000D1D4FFF7FBFD401B0228F7D9B4E000207C
:1008E000C4F242200021C0F88014FFF7EFFD054656
:1008F000706A800707D5FFF7E9FD401B0228F7D98A
:10090000A2E000F0F5FB207840071BD4E5698DB12B
:10091000706800F00C0008284CD1012D0ED07068D2
:10092000216A00F480328A4208D1616A00F47010B2
:10093000884203D1002002B0BDE8F081012002B05E
:10094000BDE8F081F069C0000BD4F0694FF00108F8
:1009500040F08050F061F06900F080500190019803
:1009600001E04FF0000847F20007C4F200073868C2
:10097000C00510D4386840F480703860FFF7A6FDD9
:10098000054600BF3868C00505D4FFF79FFD401B32
:100990006428F7D958E0E568002D3DD0012D05D039
:1009A000306A052D39D140F004003062306A40F0E1
:1009B000010038E00027C4F2422700203866FFF724
:1009C00085FD022D05460BD13068800154D5FFF717
:1009D0007DFD401B02284FF00300F5D9ABE700BFB7
:1009E00030688001A6D5FFF771FD401B02284FF04B
:1009F0000300F5D99FE700210160FFF767FD054679
:100A0000306880077FF53EAFFFF760FD401B02288E
:100A10004FF00300F4D98EE7306A20F00100306215
:100A2000306A20F004003062FFF750FD002D0546CB
:100A300041F2883714D000BF306A800713D4FFF723
:100A400045FD401BB842F7D9032002B0BDE8F08154
:100A5000FFF73CFD401BB8424FF003003FF66BAF81
:100A6000306A8007F4D4B8F1000F3FF44FAFF0695B
:100A700020F08050F06149E7206AB0F5803F05D151
:100A80007168A26821F40031114371607168626A73
:100A900021F4741110430843706001203866FFF799
:100AA00015FD0446306880013FF544AFFFF70EFDA9
:100AB000001B02284FF00300F4D93CE780B500F09A
:100AC0002FFB80BDB0B590F83C20012A04BF022066
:100AD000B0BD01F108053CCDD1E900CE23F47C5333
:100AE00022F470521A432EF4F0431A432CF4E043DC
:100AF0001A4324F4C0431A432A43C96922F48042AA
:100B0000036811435964002180F83C100846B0BDC9
:100B100010B590F83C20012A4FF0020231D0012399
:100B200080F83C3080F83D200268D2F804E0D2F82A
:100B300008C00C682EF07003234340F2FF74C4F227
:100B40000004A242536005DCB2F1804F0ED040F2A7
:100B5000004307E042F60043C4F201039A4205D085
:100B600040F60003C4F200039A4204D149682CF015
:100B70008003194391600121002280F83D1080F824
:100B80003C20104610BD0000002804BF0120704723
:100B900010B5044690F83D0028B9002084F83C00C8
:100BA000204600F01FF8022084F83D002068211D37
:100BB00000F002FB012084F8460084F83E0084F82F
:100BC0003F0084F8400084F8410084F8420084F833
:100BD000430084F8440084F8450084F83D00002078
:100BE00010BD000081B0006842F60041C4F201016E
:100BF000884201D001B0704741F21800C4F20200EF
:100C0000016841F400610160006800F40060009038
:100C1000009801B07047000010B5044690F83C0001
:100C200001284FF0020008BF10BD012284F83C20CB
:100C300084F83D0020684FF6777382689A4382609B
:100C40000A684F2A0FDC1F2A22DD202A23D0302AEF
:100C500021D0402A4DD14B68CA68194600F0D6FB16
:100C6000206840213BE06F2A17DDB2F5005F20D0FD
:100C7000B2F5805F2AD0702A3BD1D1E9012CCB6834
:100C8000614600F0F1FA2068816841F077011AE0CE
:100C90000AB1102A2DD1114621E0502A18D0602A1D
:100CA00027D14B68CA68194600F0C2FB2068602152
:100CB00015E0D1E9012CCB68614600F0D5FA206837
:100CC000816841F48041816000200BE0002009E050
:100CD0004B68CA68194600F099FB2068502100F063
:100CE000CFFA0020012184F83D10002184F83C1047
:100CF00010BD0120F6E7000080B586B0014640F641
:100D00000000C4F20100096800F5105291424FF052
:100D10000001CDE90411CDE9021101D006B080BD7A
:100D200041F21801C4F202010A6842F004020A60AA
:100D3000096801F00401019101994FF48071029159
:100D400002210391059102A9FFF7ACFA06B080BD1C
:100D5000B0B5044690F83C00012804BF0220B0BDA5
:100D60000D464FEAB2010120032984F83C0037D830
:100D7000DFE801F0020A12222068294600F088FA12
:100D8000206850F8181F0EE02068294600F0B0FADD
:100D9000206850F8181F16E02068294600F0DCFA99
:100DA000206850F81C1F41F008010160016821F023
:100DB0000401016029690FE02068294600F000FB6A
:100DC000206850F81C1F41F400610160016821F4A3
:100DD00080610160296909020268114301600020F5
:100DE000002184F83C10B0BD002804BF01207047EA
:100DF00010B5044690F83D0028B9002084F83C0066
:100E0000204600F01FF8022084F83D002068211DD4
:100E100000F0D2F9012084F8460084F83E0084F8FE
:100E20003F0084F8400084F8410084F8420084F8D0
:100E3000430084F8440084F8450084F83D00002015
:100E400010BD000070470000B0B5044641B108294C
:100E500009D0042914BF04F1410004F13F0004E06B
:100E600004F13E0001E004F14000007801281CBFBD
:100E70000120B0BD022041B1082909D0042914BFC6
:100E800084F8410084F83F0004E084F83E0001E06B
:100E900084F84000206842F644450122C4F201056E
:100EA00000F0D0F92068A5F14401884203D12968F7
:100EB00041F40041296040F2FF71C4F20001884210
:100EC00005DCB0F1804F0ED040F2004107E042F661
:100ED0000041C4F20101884205D040F60001C4F28D
:100EE0000001884206D1816801F00701062904BF8C
:100EF0000020B0BD016841F0010101600020B0BDDB
:100F0000FEE70000F0B585B0002641F21800CDE9FB
:100F10000366CDE90166C4F20200016840F60004F0
:100F200041F0200101600168012701F020010091DA
:100F300000990168C4F2010441F0040101600068F5
:100F400001AD00F00400009000980020C1F22100E3
:100F50000197CDE9020720462946FFF7A3F90220B1
:100F600001A9C1C120462946FFF79CF905B0F0BD93
:100F700010B596B040F2900042F600420021C2F255
:100F80000000C4F201023F2340F2CF741591CDE975
:100F90001311CDE91111CDE90F11CDE90D11CDE9F5
:100FA0000B11CDE90911CDE90711CDE90511CDE905
:100FB0000311CDE90111C0E90023C0E90214C0E921
:100FC00004118161FFF7E0FD002847D14FF4805004
:100FD000129040F29000C2F2000012A9FFF71CFE2E
:100FE000E0BB40F29000C2F20000FFF7FDFEA8BB9C
:100FF00040F290000024C2F2000010A9CDE9104494
:10100000FFF786FD50BB6020CDE9090440F2900057
:10101000C2F2000009A90022CDE90B44CDE90D443C
:101020000F94FFF795FEC8B900200590CDE90300A5
:10103000CDE901004FF40051089040F29000069174
:10104000C2F2000001A9FFF73DFD38B940F290005F
:10105000C2F20000FFF750FE16B010BDFFF71CF9FA
:10106000FEE70000FEE7000000F0070080F0070345
:10107000042B28BF04234FF0FF3C03380CFA03F382
:1010800038BF0020994381400CFA00F022EA0000AA
:101090000843704780B5642A4FEAB10C28BF642228
:1010A000BCF1030F1FD8C36801335A4348F21F53E2
:1010B000C5F2EB13A2FB03234FEA531EDFE80CF04B
:1010C00002060A0E026802F134030AE0026802F125
:1010D000380306E0026802F13C0302E0026802F114
:1010E0004003C3F800E0FFF7AFFE80BD704700008B
:1010F00081B040F20000C2F20000006844F6D35113
:10110000C1F26201A0FB0101480A009000BF0098F3
:10111000411E00280091F9D101B0704770470000CE
:10112000B0B501380024B4EB106F1CBF0120B0BD76
:101130004EF21005CEF2000568604FF0FF300F212F
:1011400000F092F90720AC6028602046B0BD000096
:1011500080B5FFF7C1F980BD70B590B006AC2046F0
:101160002821FFF731F801200A90102000250226DF
:101170000B904FF460100696CDE90D650F90204658
:101180000595CDE90355CDE90155FFF70DFB78B97C
:101190000F20CDE901064FF480600395CDE90405E9
:1011A00001A80221FFF718FA002804BF10B070BD93
:1011B000FFF772F87047000010B540F2FF7E036839
:1011C000C4F2000E42F6004C7045C4F2010C05DC7E
:1011D000B0F1804F0AD040F2004203E0604505D0F4
:1011E00040F60002C4F20002904203D14A6823F0A4
:1011F00070031343704505DCB0F1804F0AD040F214
:10120000004203E0604505D040F60002C4F200024F
:10121000904203D1CA6823F44073134323F0800241
:101220004B69D1F800E08C681A4360450260C462E3
:10123000C0F828E002D10969CCF8301001214161E1
:1012400010BD000080B501F01F014FF0010CD0F877
:1012500020E00CFA01F32EEA03030362036A02FAA8
:1012600001F11943016280BDD0F808C011432CF48C
:101270007F4C41EA032141EA0C0181607047000084
:10128000826822F07002114341F0070181607047CB
:1012900070B5026A036A42F6004E23F0010303624E
:1012A000456883690C688E6823F0730322F002029C
:1012B000C4F2010E43EA040C704542EA060208D06B
:1012C00070450ED04560C0F818C04968416302629D
:1012D00070BDCB6822F00C0223F004031A43704562
:1012E000F0D125F44073D1E9056533431D43E9E7A7
:1012F00070B5026A036A42F6004E23F010030362DF
:10130000456883690C688E6823F4E64322F0200266
:10131000C4F2010E43EA042C704542EA061208D0DA
:10132000704510D04560C0F818C0496881630262FA
:1013300070BDCB686FF0400422F0C00204EA0313D2
:101340001A437045EED125F44063D1E9056543EABF
:10135000860343EA8505E5E770B5026A036A42F64B
:10136000004E23F4807303624568C3690C688E687D
:1013700023F0730322F40072C4F2010E43EA040C5A
:10138000704542EA062208D0704510D04560C0F88A
:101390001CC04968C163026270BDCB6840F2FF4463
:1013A0001B0222F44062A3431A437045EED125F498
:1013B0004053D1E9056543EA061343EA0515E5E71D
:1013C000B0B5D0F820E0026A22F48052026244688C
:1013D000C3690A6823F4E6438D6843EA022C42F6A7
:1013E00000432EF40052C4F20103984242EA05334E
:1013F00004D14A6924F4804545EA82144460C0F867
:101400001CC0496801640362B0BD0000D0F820C070
:10141000036A23F001030362836923F0F00343EAC4
:1014200002122CF00A031943826101627047000026
:10143000D0F820C0036A23F010030362836923F409
:10144000704343EA02322CF0A00343EA01118261A7
:1014500001627047FEE700004EF60C50CEF200002D
:101460000068C0F3022070474EF6145300F00F02DC
:10147000CEF2000309011A4400F16043B0F1FF3FCE
:10148000C8BF03F564421170704700004EF60C515E
:10149000CEF200010A684FF6FF031A4060F30A22F9
:1014A00042F0806040F0FD7008607047B0B540F2D7
:1014B0008805C2F2000529780446012904D0204697
:1014C00000F0BAF8012028702069A18AFEF7F8FF21
:1014D000A178884205D0A0700120E070FEF7F6FFE9
:1014E0006060E07848B1FEF7F1FF6168401A0F28AC
:1014F00003D3A07820700020E070207861788842C3
:101500001AD078B1FEF7E2FFA168401AB0F5FA6F81
:1015100002D8204600F030F8204600F031F80020D4
:10152000207307E001202073204600F019F8FEF731
:10153000CDFFA06020786070207B60B1FEF7C6FF11
:10154000A168401AB0F5FA6F38BFB0BD204600F070
:1015500015F800202073B0BD016182827047000041
:1015600040F2D800C2F2000001780131CAB2022A6A
:1015700088BF00210170704770470000704700006D
:101580007047000010B540F2D800C2F200000278A7
:101590007AB3022A04D0012A18BF10BD642228E0C1
:1015A000FEF794FF40F28C04C2F200042168401A56
:1015B000B0F57A6F02D3FEF789FF2060FEF786FF51
:1015C00021684FF63002091A11F5FA60CFF6FF7262
:1015D00048BF501A00F065F849F69A1249F6991377
:1015E000C9F69912C3F6A97300F072F800F02AF850
:1015F000024640F29000C2F200000021FFF74AFDCF
:1016000010BD0000FEF776FFFFF7A6FDFFF77AFC9E
:10161000FFF7AEFC40F27004C2F2000440F6000195
:10162000C4F2010120460222FFF796FF2046FFF791
:101630003DFFFFF7A7FFF9E740F20111018001210B
:10164000817070474FEA41034FEA5353A3F580631B
:10165000D3F11E03C8BFD3F1210C0CDD4FF00042C3
:1016600042EAC12242EA505232FA03FC8CEAE17C9F
:10167000ACEBE1707047102BC4BF0020704703F53E
:10168000787CBCF1FF3F04D06FF0004282EA210079
:10169000704770B500F0C6F849922480002070476A
:1016A000F2E710F0004248BF4042B0FA80F310FA6F
:1016B00003F10AD0C3F11D0303F5806302EB03526B
:1016C0004FEA415002EBD12170474FF000007047C4
:1016D00070B5DFF848C11CEA111E1EBF1CEA1315C5
:1016E0009EEA0C0F95EA0C0F00F06F8081EA03046C
:1016F0004EEAD47EAE4421EA4C1123EA4C1341F465
:10170000801143F48013AEF17F7EA1FB024CA0FB5D
:101710000365361955EB0C05A1FB034C4CF1000396
:10172000A0FB021C16EB0C06654153F100030942B5
:1017300018BF46F0010613F4007F0BD14FEA0331C6
:101740004FEA053041EA155140EA165034036FF074
:1017500003020AE04FEAC3214FEAC52041EA55518E
:1017600040EA5650F4026FF0020202EB2E4201EB07
:10177000025585EACE710AD05FEA440C18BF24F006
:10178000004450F1000041F1000120EAD47040F221
:10179000FE7C624500D270BDA84214BF4FF0804469
:1017A0004FF04044002E08BF0024BEF1806FA8BF58
:1017B000A1F1C041BDE8704080F2828001F1C041DA
:1017C00001F000414FF0000070470CEA13159EEA4B
:1017D0000C0F18BF95EA0C0F06D081EA030E4FF0EC
:1017E00000000EF0004170BD00F01CF88900013EC1
:1017F00000F007B800F009B84FEA430C5FEA5C5C00
:1018000008D081EA030100F05BB84FEA410C5FEABF
:101810005C5CF6D102494FF0000070470000FF0702
:101820000000F87F0EF1020E2EF0030E5EF8046B3E
:10183000364205D4012A43EB030515F5001F12D8E3
:10184000012841EB010C1CF5001F0CD80ED14FEA0A
:10185000D17C0CEB4C0C0CF1020C15F5001F08BFF1
:101860004CEBD37C04E04FF0080C01E04FEAD37C52
:101870000CEB4C0526FA05F606F00706B6F1040C4B
:1018800006D20EEB860CBDE870404CF0010C6047B0
:10189000DFE80CF0090B02024FF00041A1F5002136
:1018A0004FF0000070BD19461046012851EB0104AD
:1018B00018BFD4F5001484BF002001F0004170BDB2
:1018C0000808A0F500114FEA310170470000000040
:1018D00000000000010203040607080900190008BF
:1018E0000000002010000000280100081019000866
:1018F00010000020D0060000440100080000000095
:101900000024F400010000001000000000000000AE
:04000005080000ED02
:00000001FF
